:020000040800F2
:10100000E02B0020CD5100080552000809520008CD
:101010000D5200081152000815520008000000008F
:10102000000000000000000000000000195200084D
:101030001D5200080000000021520008A5320008DF
:1010400025520008295200082D520008315200088C
:1010500035520008B1320008395200083D520008EC
:1010600000000000415200084552000849520008A3
:101070004D5200085152000855520008000000006F
:10108000595200085D52000800000000615200083B
:1010900065520008695200086D520008715200083C
:1010A00075520008795200087D52000881520008EC
:1010B0008552000800000000000000000000000051
:1010C00089520008000000008D5200082DE9F0410F
:1010D00001F06EFD012807D100F0C6FE142803D1EF
:1010E0000120DFF8841B087001F07CFD80B200F065
:1010F000C3FFDFF8744B207800280CD0022800F0E2
:10110000B38078D3042800F0E080C0F0C1800528C7
:1011100000F03A81D6E1DFF81C0D0088DFF8181DD9
:101120000880DFF8180D0088DFF8141D0880C02142
:101130000022DFF8105D280001F00AFF0020DFF830
:10114000081D087010210022DFF8005D280001F062
:10115000FFFE1F210022DFF8F85C280001F0F8FEF6
:10116000DFF8F00C017871F07F010170FF25457008
:10117000DFF8E46C88223100652001F035FF86211C
:10118000300001F0F3FFB6F8861080B281422FD014
:10119000882100223700380001F0DAFE00270AE03B
:1011A000102216F12F013800C0B2000100F6ED1038
:1011B00001F049FF7F1C3800C0B28028F0DB12200C
:1011C000B0710020F071002086F88000002086F8C1
:1011D00081000622DFF8841C3700380002F00EF888
:1011E00035727572002086F88200022020706BE153
:1011F0000520207068E1DFF8605C4FF6FF70A5F80D
:10120000860088222900652001F01DFFC0210022F0
:10121000DFF8306C300001F09BFE0020DFF8281C66
:10122000087010210022DFF8246C300001F090FEDD
:101230001F210022DFF8186C300001F089FEFF202A
:1012400028726872002085F88200DFF8E80B0088B9
:10125000DFF8E41B0880DFF8E40B0088DFF8E01B10
:101260000880022020702FE1C7210022DFF8F05B08
:10127000280001F06DFE00220021012000F026F977
:1012800002F094F9DFF8DC1B0860032020701BE1FA
:1012900002F08CF9DFF8CC1B0968401AB0F57A6FC0
:1012A00012D3DFF8BC1B087B002802D0042020707A
:1012B0000AE1887B102804D100220021132000F0CD
:1012C00005F902202070FFE0FEE0DFF8945B28784B
:1012D000FF2856D006221727687B7843284410F150
:1012E0001F01DFF8746B16F10A08404601F086FF13
:1012F0002022687B7843284410F10F0116F12F0853
:10130000404601F07BFF687B07FB00F705EB070019
:1013100090F8250086F883000222290016F10807BC
:10132000380001F06BFF687886F87F00002086F8AF
:101330007E00102086F8820000220021122000F09A
:10134000C5F8DFF8205B02F031F9286002F02EF9D1
:10135000DFF8EC1C086002F029F9286086213000D3
:1013600001F004FFA6F8860088223100652001F014
:101370006AFE02F01BF9DFF8CC1C08600520207023
:1013800001E0022020709FE002F0C8FADFF8B85CAC
:10139000DFF8D04A02F00AF92168401AA8420DD3BA
:1013A00002F004F92060DFF8B00A90F882004028CB
:1013B00004DB00220021422000F088F8DFF8844C92
:1013C00002F0F4F82168401AA84215D302F0EEF8B2
:1013D0002060DFF8840A90F88210402906DB10F1C3
:1013E00080020021352000F071F805E010F17E0246
:1013F0000021352000F06AF8DFF8444C02F0D6F8FE
:101400002168401ADFF8441C88425AD302F0CEF813
:1014100020601F22DFF8404A14F13F05290014F133
:101420001006300001F0EAFE1F222900DFF8206AD2
:10143000300001F0E3FE1F210022280001F088FDAA
:10144000102214F15E05290014F12F06300001F07E
:10145000D5FE102100222E00300001F079FD00267B
:101460001EE0DFF8E8193000C0B200F029FC0028C7
:1014700015D0607A3100C9B2884210D014F16E01E3
:101480003000C0B200F01CFC002808D11022290056
:101490003000C0B2000100F6ED1001F0D4FD761C62
:1014A0003000C0B28028DCDB10226E342100DFF86F
:1014B0009C59280001F0A2FE10210022200001F01A
:1014C00047FD01E000202070BDE8F0812DE9F843E0
:1014D00084B080460F00150000241A210022DFF896
:1014E000706BB146484601F033FD86F801804046F6
:1014F000C0B210F07000202806D05FFA88F818F00B
:101500007008B8F1300F10D1002D06D0022216F16C
:1015100014082900404601F071FE0222DFF8341B56
:1015200016F11205280001F069FE02F042F8DFF81A
:101530001819DFF810290B7813F02F0342F8230055
:10154000087810F02F0052F82000C6F8160008782E
:10155000401C08707078012829D0022869D0112811
:1015600000F08480122800F0B680132800F0C480B8
:101570002D2800F0C980302800F0EF80322800F0DC
:10158000F480332800F01581342800F03C813528A0
:1015900000F05F813D2800F07081412800F0AE81AD
:1015A000422800F0C0814D2800F0FA810DE20622A9
:1015B000DFF8A4582900DFF8A07A380001F01EFEF9
:1015C000E020B070DFF8940A0178491C01700078BF
:1015D00010F0030F02D1B0781030B0700222291D34
:1015E00016F10805280001F009FE2000C0B23044C1
:1015F00010F11A01082001F089F80419707810F030
:10160000700F05D0707810F07000102840F0DE8167
:101610000822DFF8441816F10A05280001F0EEFD53
:101620001A342100481E307030788028C0F2E781DB
:10163000F3E1F020B0700222DFF8241A16F1080559
:10164000280001F0DBFD2000C0B2304410F11A0187
:10165000002001F05BF804192000C0B2304410F102
:101660001A01022001F052F80419C7E70822DFF836
:10167000F419B51C280001F0C1FD2000C0B23044AF
:1016800010F11A01032001F041F804192000C0B242
:10169000304410F11A01012001F038F8041920003B
:1016A000C0B2304410F11A01042001F02FF80419DF
:1016B0002000C0B2304410F11A01062001F026F8D3
:1016C00004192000C0B2304410F11A01092001F0C1
:1016D0001DF8041992E70822DFF88C19B51C2800C0
:1016E00001F08CFD2000C0B2304410F11A0100203E
:1016F00001F00CF8041981E70822DFF86C19B51C19
:10170000280001F07BFD79E73D000622DFF848174D
:10171000DFF84479380001F071FDF020B07000204E
:10172000F070002D18D00622371D2900380001F076
:1017300065FD2000C0B2304410F11A01082000F00D
:10174000E5FF04192000C0B2304410F11A010A204C
:1017500000F0DCFF041951E75FE10822DFF804190B
:10176000B51C280001F04AFD48E770788038707099
:101770000622DFF8E4562900DFF8DC78380001F0B3
:101780003DFD022215F17E01B71C380001F036FD47
:10179000062215F10A01351D280001F02FFD200059
:1017A000C0B2304410F11A01082000F0AFFF041954
:1017B00024E7707880387070DFF8B008DFF898564A
:1017C000C17C6A7A914207D1022210F11201B71C42
:1017D000380001F013FD05E00021B170C07C00F07D
:1017E00084FAF070062215F10A01351D280001F077
:1017F00005FD2000C0B2304410F11A01052000F0B0
:1018000085FF0419FAE67078803870700222DFF8DC
:10181000485615F17E01B71C380001F0EFFC062296
:1018200015F10A01351D280001F0E8FC2000C0B2C6
:10183000304410F11A01002000F068FF0419200064
:10184000C0B2304410F11A01072000F05FFF041904
:10185000D4E67078803870700222DFF8FC5515F1FC
:101860007E01B71C380001F0C9FC062215F10A01FF
:10187000351D280001F0C2FCC0E670788038707019
:101880000622DFF8D4552900DFF8CC77380001F0C4
:10189000B5FC95F88200402812DB707D697A884299
:1018A00007D1022216F11401B71C380001F0A6FC82
:1018B0000AE00020B070707D00F017FAF07003E0CD
:1018C0000020B070687AF070062215F10A01351D0B
:1018D000280001F093FC2000C0B2304410F11A013E
:1018E000082000F013FF04192000C0B2304410F1AA
:1018F0001A010A2000F00AFF04197FE67020B07078
:101900000020F0700622DFF86817351D280001F06E
:1019100075FC2000C0B2304410F11A01092000F01B
:10192000F5FE04196AE6DFF84C77DFF82C55687A83
:101930003870102269463878000100F6ED1001F089
:1019400053FB15F12F0810224146684602F044FD72
:10195000002807D0102241463878000100F6ED102B
:1019600001F071FBF020B0700020F070062215F13C
:101970000A01351D280001F041FC2000C0B23044AE
:1019800010F11A01022000F0C1FE04192000C0B2BB
:10199000304410F11A01072000F0B8FE04192DE6BA
:1019A000F020B0700020F0700622DFF8C416351D5C
:1019B000280001F023FC2000C0B2304410F11A01CD
:1019C0000A2000F0A3FE041918E626E0707810F053
:1019D0007000302809D0707810F07000202804D0F2
:1019E000707810F07000402808D10822DFF86416E3
:1019F00016F10A05280001F001FC11E60DE07078EF
:101A000010F07F00302804D1C9B2300000F008F88F
:101A100003E0C9B2300000F028F805B0BDE8F0835B
:101A200030B4DFF818241488DFF814341B88E31A64
:101A30009B059B0DD3F580630C00E4B2A4B29BB26E
:101A40009C4210D20AE00378DFF8B44C1588AD054B
:101A5000AD0D6355401C13885B1C13800B00591E91
:101A6000DBB2002BEFD130BC704730B4DFF8C423B9
:101A70001488DFF8C4331B88E31A5B055B0DD3F5CC
:101A800000630C00E4B2A4B29BB29C4210D20AE004
:101A90000378DFF8704C15886D056D0D6355401C9B
:101AA00013885B1C13800B00591EDBB2002BEFD197
:101AB00030BC70473EB50020012400E0641C2000CB
:101AC000C0B2802828DA062269462000C0B2062368
:101AD000584300F2ED6001F087FA06226946DFF80C
:101AE000780502F079FC0028E8D12100C9B208226B
:101AF000012391FBF2F002FB101013FA00F0D3491E
:101B00002200D2B2D2108A5C10432200D2B2D2108C
:101B100088542000C0B23AE0012400E0641C200098
:101B2000C0B2802832DA2200D2B20823C74920008E
:101B3000C0B2C010085C92FBF3F503FB1522104104
:101B400010F00100C0B20028E8D12200D2B2082370
:101B5000012592FBF3F003FB102015FA00F02200A0
:101B6000D2B2D2108A5C10432200D2B2D210885472
:101B70000622DFF8E4142000C0B20623584300F226
:101B8000ED6001F060FA2000C0B200E0FF203EBD31
:101B90003EB50020012400E0641C2000C0B2F828FB
:101BA00027DA062269462000C0B206235843ED30EA
:101BB00001F01AFA06226946DFF89C0402F00CFCD8
:101BC0000028E9D12100C9B20822012391FBF2F0DB
:101BD00002FB101013FA00F09D492200D2B2D2107D
:101BE0008A5C10432200D2B2D21088542000C0B2C6
:101BF00039E0012400E0641C2000C0B2F82831DA8A
:101C00002200D2B2082392492000C0B2C010085C62
:101C100092FBF3F503FB1522104110F00100C0B256
:101C20000028E8D12200D2B20823012592FBF3F06C
:101C300003FB102015FA00F02200D2B2D2108A5C09
:101C400010432200D2B2D21088540622DFF80814C2
:101C50002000C0B206235843ED3001F0F4F9200013
:101C6000C0B200E0FF203EBDD61B002030B40022F1
:101C70000300DBB20824012593FBF4F204FB1232CB
:101C800015FA02F2C0B2C010084401780A4302708B
:101C900030BC704730B400220300DBB208240125B9
:101CA00093FBF4F204FB123215FA02F292F0FF02F7
:101CB000C0B2C010084401780A40027030BC7047BE
:101CC00030B4020000201300DBB20824012593FB8E
:101CD000F4F004FB103015FA00F0D2B2D210114427
:101CE00009780840C0B230BC704770B5A0B006009B
:101CF000102218A93000C0B2000100F6ED1001F06A
:101D000073F9554C617A082218AD607AC010285CCE
:101D100091FBF2F302FB1311084110F00100C0B275
:101D2000002802D03000C0B281E0102100226E46AF
:101D3000300001F00DF9102218A908AE300001F0B2
:101D40005DFA00210DE008A80A00D2B2825C684664
:101D50000B00DBB2C05C424010A80B00DBB2C254E7
:101D6000491C0800C0B21028EDDB002610E008AACC
:101D70000800C0B2135C0800C0B2285C034308002E
:101D8000C0B21354491C0800C0B21028EFDB761C07
:101D90003000C0B280282EDA3100C9B2082210A863
:101DA0003300DBB2DB10C05C91FBF2F302FB1311DA
:101DB000084110F00100C0B20028E8D0102218A994
:101DC0003000C0B2000100F6ED1001F00DF9617AAB
:101DD0000822607AC010285C91FBF2F302FB131119
:101DE000084110F00100C0B2002801D10021CAE76B
:101DF0003000C0B21BE000210CE06A460800C0B20F
:101E0000135C10A80E00F6B2805D03430800C0B258
:101E10001354491C0800C0B21028EEDB102269469A
:101E200008A802F0D9FA00288BD194F87F0020B0DE
:101E300070BD0000BA1B0020BC1B0020BE1B002090
:101E4000C01B0020D0160020D21B0020281B002021
:101E5000D01A0020B81B002090170020681A00201C
:101E600008160020781B00202DE9F047DFF8A01AA3
:101E7000DFF8A04A20880A8890423AD0744ADFF8F6
:101E8000803808888005800D185C10700888401C18
:101E900008801078002802D01078802803DB208882
:101EA00008800220CAE0258808882D1AAD05AD0DEE
:101EB0001078854203DA208808800320BEE0541C95
:101EC000002009E00D88AD05AD0D5D5D2570641C39
:101ED0000D886D1C0D80401C05001678EDB2B542D2
:101EE000F0D31178491CC9B2100000F06BFE01203C
:101EF000A4E0DFF8244A94F8850001280ED101F00F
:101F000055FBDFF8181A0968401ADFF8141A096837
:101F100011F57A71884201D200208FE001F046FB72
:101F2000DFF8F819086001F044FB4FF4FA61B0FBE8
:101F3000F1F201FB1200DFF8E8190860DFF8E4793C
:101F4000DFF8E41908883A88904276D03D88DFF8B7
:101F5000B4873F4E38884005400D18F800003070B7
:101F60003888401C38803078002802D030788028AB
:101F700003DB08883880052060E00A883888121A58
:101F80005205520D3078824203DA088838800620E4
:101F900054E0711C00200AE03A885205520D18F8EE
:101FA00002200A70491C3A88521C3A80401C0200E8
:101FB0003378D2B29A42EFD37078000635D516F155
:101FC000020914F17E0A02225146484602F004FA40
:101FD000002803D101F0EAFA1A4908603D80012087
:101FE00084F88500DFF8440901784A1C0270C9B200
:101FF00006291ADB39883A885205520D18F8022052
:102000008918398000210170002084F885007078DB
:1020100010F07000302808D102225146484602F0E4
:10202000DBF9002801D1142008E03178491CC9B23D
:10203000300000F0C7FD0A2000E00020BDE8F08776
:102040007C1B0020841B0020E0930400C0270900B3
:102050001C19002098170020641B0020D71B0020AB
:1020600094170020A61800200C1600209C180020B1
:102070009A170020D41B00202DE9F04385B00400FE
:102080006846DFF8AC180A680260200080B21A289F
:10209000C0F03283DFF89C680121300000F0ACFD15
:1020A0003078002812D030787E280FDA3178891CF9
:1020B000C9B2701C00F0A0FD80B23178891C884242
:1020C0000AD019E30121300000F096FD2000441EE3
:1020D00080B20028F6D10FE3757815F0800570788E
:1020E00010F0700F0BD1DFF8301891F88200B27841
:1020F000104204D00822B41C200001F07FF8707850
:1021000010F07000402814D1DFF80C48062214F1BA
:102110000A01301D02F060F900280AD194F882000B
:10212000B178084205D00822B71C2100380001F020
:1021300065F8707810F0700F09D0707810F07000AA
:10214000102804D0707810F07000402808D10822C0
:10215000DFF8C417B01C02F03FF9002826D0CBE20C
:10216000707810F07000302820D1DFF8AC4794F878
:102170008200402811DBF07A617A884205D114F19F
:102180003F01B07AFFF772FD07E0B07A002804D172
:1021900014F15E01F07AFFF769FD082214F10801DD
:1021A000B01C02F019F9002840F0A6823078B0F196
:1021B0001801C9B216F11A0000F038FB002800F02F
:1021C0009B8216F10A04DFF85077022217F17E0194
:1021D000200002F001F9002805D1DFF85C07007843
:1021E000DFF858170870EDB2002D04D0220000214E
:1021F0003020FFF76BF9002000E0401C302808D2A7
:10220000DFF83C1751F82010D6F816209142F4D18F
:1022100072E2DFF83007D6F81610DFF824270378CB
:1022200013F02F0342F823100178491C01707078D5
:1022300010F0700020283DD104226946B01D02F044
:10224000CBF800281AD197F8820040280EDB3278AC
:10225000521C3100DFF8F056A846404600F0CEFF91
:102260003178491CC9B22800FFF7FFFB0222390070
:10227000301D02F0B1F800281CD03DE206223900E2
:10228000301D02F0A9F8002814D097F882004028E9
:10229000C0F232823278521C3100DFF8AC462500A1
:1022A000280000F0ABFF3178491CC9B22000FFF7CD
:1022B000DCFB21E2707810F0700030283AD116F182
:1022C000140817F1080502222900404602F084F89C
:1022D00000282FD03278521C3100DFF86C46A1461E
:1022E000484600F08BFF707D797A884207D1022240
:1022F00014F102094146484600F080FF05E0002045
:10230000A070707DFFF7F1FCE070062217F10A0162
:10231000271D380000F072FF0822290014F10A0579
:10232000280000F06BFF3178491CC9B22000FFF78C
:102330009CFBE1E1707810F07000402826D197F8FE
:102340008200402822DB3278521C3100DFF8F85539
:10235000A846404600F052FFF020A8700020E87028
:10236000062217F10A0115F10408404600F046FF65
:10237000082217F1080115F10A08404600F03EFF57
:102380003178491CC9B22800FFF76FFB707810F054
:102390007F00C0B2012826D0022800F01381112846
:1023A00027D0122800F0A680132800F0BA802D282C
:1023B00000F08481302800F06B81322800F0BF806B
:1023C000332800F0C380342800F02C81352800F039
:1023D00074813D2800F08581422800F038814D2825
:1023E00000F0858188E1002200211120FFF76EF8BE
:1023F00082E15FF00008DFF85455287840284BDB75
:10240000404610F10108DFF84865317B88420DD263
:102410000622DFF8401518F007031720434306EBA8
:1024200003001F3001F0D8FF0028E9D11727B8F1C9
:10243000010010F007007843304410F10F01DFF87D
:1024400018054078FFF712FCB8F1010010F0070002
:1024500078433044B8F1010111F007017943314468
:1024600091F82510491C80F82510307B404513D287
:102470000622DFF8E014B8F1010010F0070007FBB6
:1024800000F706EB070010F11F07380000F0B6FE5A
:1024900086F80C80B8F10108DFF8C064DFF8980412
:1024A000318890F900207F32D2B2920851FA82F13D
:1024B0003180318820314078091A3180DFF89074FA
:1024C00078883188884214D2082221003C1D2000DF
:1024D00000F094FE18F0070887F80D800222DFF85C
:1024E00078143C00200000F089FE2878B87330880A
:1024F000788001E1DFF8684417F13F012078FFF7A9
:10250000B5FB17F110012078FFF7B0FBDFF854148A
:102510002078FFF7ABFB97F88400401C87F8840015
:10252000EAE097F88200102808D1202087F882007E
:1025300017F1800200213220FEF7C8FFDCE016F11F
:10254000120200213320FEF7C1FFD5E0DFF8184466
:102550006078FF2832D06078DFF81014087000220D
:1025600000210220FEF7B2FF022217F10805210028
:10257000280000F043FE402087F88200102217F167
:102580002F01787A000100F6ED1000F05CFD17F1E4
:10259000800200213420FEF799FF8621380000F0E8
:1025A000E5FDA7F8860088223900652000F04BFD84
:1025B000002200214220FEF789FF02E0102087F868
:1025C000820099E0DFF89843787A6178884213D1E5
:1025D00017F13F012078FFF75DFB17F1100120781C
:1025E000FFF758FBDFF87C132078FFF753FB97F8D1
:1025F0008400401E87F8840017F12F042100DFF8C3
:102600006C030078FFF732FB10222100787A00017A
:1026100000F6ED1000F017FD97F88300401C87F8D6
:10262000830069E0DFF8384317F16E016078FFF747
:102630001DFB35496078FFF719FB1022DFF83013D6
:102640006078000100F6ED1000F0FDFC54E0DFF8CA
:102650001C4317F16E012078FFF708FB102201A937
:102660002078000100F6ED1000F0BEFCDFF800530A
:102670001022290001A801F0AFFE002807D0102287
:1026800029002078000100F6ED1000F0DCFC33E0BA
:1026900097F8850001280FD1A2480188194A0388BC
:1026A0005B055B0DD25C8918491C018000209F49A5
:1026B0000870002087F885001EE01DE004226946AE
:1026C000B01D01F089FE002805D116F11201380075
:1026D00001F063FA04E016F11201A64801F05DFA78
:1026E0000AE016F11201A34801F057FA04E00021B4
:1026F000002001F052FAFFE705B0BDE8F0830000CA
:102700000810002008080020281B0020F8B506004B
:102710000D003000C0B200280FD0022820D01CD3FA
:10272000042823D01FD3062862D052D3082871D0A2
:102730006DD30A2874D070D376E002278E4C2E70A9
:10274000681C0770451C3A00D2B22100280000F036
:1027500055FDBF1C3800C0B2F2BD0627874CEEE71E
:102760000127824CEBE70127854CE8E77B4C0020F2
:102770002080694890F88210412906DB90F8841087
:10278000F82902DA21885031218090F8821020291E
:1027900007DB90F88410F82903DA21884031218082
:1027A00002E0218820312180218890F883000818D8
:1027B00020806148218890F900207F3292B211EB8D
:1027C00092012180218820314078091A2180022736
:1027D000B5E76C4CFF2060704F4890F8820080286D
:1027E00004D100202070FFF765F960700227A6E78A
:1027F000644CFF202070484F97F88200402804DB8B
:10280000FFF7C6F92070787A6070022797E71027E3
:102810005D4C94E70627574C91E704275B4C8EE705
:102820005B4C6778BF1C8AE7002095E7F8B50C0081
:1028300018E01600574F30001100C0B2C9B28842EC
:102840002ED12000C0B2D2B2921C904228DBA41B31
:10285000A41E3200D2B22900380000F0CFFCF6B23C
:1028600005EB06002100C9B203293FDB0178401CBB
:102870000278451CC9B200290FD0022915D011D306
:10288000042918D014D3062918D01AD308291ED029
:102890001AD30A2921D01DD325E00226304FCAE7DA
:1028A000002034E006262B4FC5E701262F4FC2E754
:1028B0000126264FBFE70226284FBCE70226264FF7
:1028C000B9E70226284FB6E71026294FB3E70626B8
:1028D000284FB0E704262D4FADE71000C0B24328C3
:1028E000A7D3002013E00020002010E0124990F947
:1028F00000200A70401C007848704878000605D512
:10290000487810F07F004870012000E00020F2BD00
:10291000C01B0020BE1B002090170020801B002041
:10292000881B0020BC1B0020BA1B0020D31B0020EA
:10293000FC5100089C180020B81B0020D11B00206F
:10294000D0160020D21B00201C190020D51B00200F
:10295000081600205C1B0020C61B0020C81B00209E
:10296000C21B0020D01A0020C41B0020D41B002052
:10297000381B0020641B0020981700209A170020A5
:1029800012180020CA1B0020BF170020481B00207F
:102990009C190020E01900202DE9F041032000F0EF
:1029A000A2FEDFF86445206830F010002060DFF8F8
:1029B0005C55EF2000F0A5FE2870D72000F0A1FEA6
:1029C000002000F09EFE0600206850F010002060FD
:1029D0003000C0B200285AD0206830F010002060CB
:1029E000EF2000F08EFE2870732000F08AFE002099
:1029F00000F087FE10F01F00216851F010012160E7
:102A0000C0B211280CD1206830F0100020603A20AC
:102A100000F077FE2870206850F01000206036E04B
:102A2000DFF8EC743888DFF8EC14B1F80080B0EB14
:102A300008085FEA48585FEA5858D8F500682068E7
:102A400030F010002060FF2000F05BFE28700025B1
:102A500013E0002000F055FEDFF8BC143A88520560
:102A6000520D8854404680B23100C9B2491C884298
:102A700002DB3888401C38806D1C28003100C0B251
:102A8000C9B28842E5D3206850F010002060DFF81A
:102A90008C04016851F002010160BDE8F0813EB58F
:102AA00000F0BFFDDFF87804DFF878140860052037
:102AB00000F034FDDFF87004016851F0020101609C
:102AC000DFF844442068400840002060322000F0D5
:102AD00060FD206850F001002060302000F0FCF91B
:102AE0003D2000F0F9F90290DFF820449DF808003D
:102AF000207006E03D2000F0EFF902909DF80800FC
:102B000020702078C0F30210C0B20028F2D1002556
:102B10000DE0DFF8180400EB850189788DF80010CE
:102B20000122694630F8250000F0AAF96D1C692DD4
:102B3000EFD3DFF8FC03827A40F21E53DFF8F40390
:102B40000021E3FB020100F029FB000A01900322AF
:102B500001A942F60C7000F093F93B2000F0BCF99B
:102B600002909DF8080020703A2000F0B5F902901C
:102B70009DF808002070342000F0AEF902909DF816
:102B800008002070DFF8B04300F010FD20602068DE
:102B9000DFF8A813086000F00CFDDFF8A41308703C
:102BA0000021052000F0D0FC052000F0A1FC37BD7D
:102BB000DFF890030078002801D1012000E0002018
:102BC000C0B2704780B50A00D2B2812A06DAC9B213
:102BD00000F079F90120DFF86C130870DFF8640366
:102BE000007802BD0020CA480188CA480088081A37
:102BF0004005400D80B2704730B4020000200B0049
:102C0000591EDBB2002B12D0C24BC34C1D886D0580
:102C10006D0D645D1470521C1C88641C1C80401C6B
:102C20001B88BB4C2488A342E9D180B200E080B26B
:102C300030BC70477CB505003D2000F04DF9009098
:102C4000B24C9DF80000207000F0B0FCBB4E316823
:102C5000401AB0F5FA6F08D200F0A8FCB64909682E
:102C6000401A4EF66021884208D3B7480068C0F386
:102C700080000028F9D1FFF712FF5AE02078C0B297
:102C8000000910F00700C0B200281FD0012825D08D
:102C9000032813D0062809D007284AD13B2000F08A
:102CA0001BF900909DF80000207042E03A2000F0EF
:102CB00013F900909DF8000020703AE0352000F0F4
:102CC0000BF900909DF80000207032E0342000F0F5
:102CD00003F900909DF8000020702AE02800C0B29F
:102CE000012804D09948016849084900016000F0B2
:102CF0005DFC306093480178012919D100210170F1
:102D0000EDB2012D04D09148016851F0010101603C
:102D100000F010F80028FBD000F04BFC8849087048
:102D2000312000F0D9F800909DF80000207000E0FC
:102D3000FFE773BD10B584480068C0F38000002829
:102D40000BD17F4C2078401E2070462000F016FCEE
:102D50002078002803D1012002E0002000E00020BC
:102D600010BD00002DE9FE4305000E0091461F0036
:102D70000A9C72B6032000F0B6FCDFF88C81D8F80C
:102D8000000030F01000C8F8000056EA0500C0B29C
:102D900000F0B7FC8DF804004846C0B200F0B1FC6A
:102DA0008DF800002200D2B2390035432800C0B2AD
:102DB00000F035F8D8F8000050F01000C8F8000016
:102DC00062B60198BDE8FE832DE9FC4104000D00C8
:102DD00016001F0072B6032000F085FCDFF8288182
:102DE000D8F8000030F01000C8F8000055EA0400E0
:102DF000C0B200F086FC8DF800003A00D2B231007B
:102E00002C432000C0B200F00AF8D8F8000050F0BF
:102E10001000C8F8000062B60098BDE8F6817CB5E5
:102E20000C001500010614D540060DD50026300013
:102E30002900C0B2C9B2884221D2002000F061FC52
:102E40002070641C761CF2E7002000F05AFC207011
:102E500015E040060ED5002630002900C0B2C9B2E8
:102E600088420CD2207800F04CFC8DF80000641CE5
:102E7000761CF1E7207800F044FC8DF8000073BD6B
:102E800038B513000400A4B2240A2500EDB2002DC9
:102E900008D1DBB20A000100C9B24020FFF794FF5D
:102EA00002000EE02500EDB22F2D0AD1DBB2009317
:102EB0000B000200D2B22100C9B24020FFF752FF3E
:102EC0000200100032BD80B502000B00DBB27F2192
:102ED0000020FFF779FF02BD38B5040072B6032069
:102EE00000F001FC084D286830F010002860200038
:102EF000C0B200F006FC8DF80000286850F0100009
:102F0000286062B6009832BD14000048D01B002033
:102F1000B41B0020B61B0020080000201404014050
:102F2000992900086C1B002000040140304F000864
:102F3000A01A0020B8DE5600701B0020741B002071
:102F4000CF1B0020CE1B00201000004814140048A6
:102F500062F30F2262F31F42401810F0030308D0FF
:102F6000C91A1FD3DB0748BF00F8012D28BF20F87E
:102F7000022D130030B414461546103928BF20E93D
:102F80003C00FAD8490728BF20E90C0048BF40F8A8
:102F9000042D890028BF20F8022D48BF00F8012D1C
:102FA00030BC7047C91818BF00F8012DCB0728BFE7
:102FB00000F8012D70470EE00268436802440830B3
:102FC0005FEAC37C44BF4B445B1E52F804CB43F81A
:102FD00004CB091FF9D150F8041B0029ECD170472C
:102FE00080B500F01EFB01BD71B581B00D0016006B
:102FF00072B6022000F077FB584C206830F00200D7
:103000002060032000F07DFB8DF800009DF8050096
:1030100000F077FB8DF800009DF8040000F071FBD4
:103020008DF8000004E0002000F06BFB28706D1CA0
:103030003000461E80B20028F5D1206850F0020012
:10304000206062B673BDF8B50C001600444D002137
:103050002970444F386001E000F020F83000461E2F
:1030600080B2002814D020783F492A788854641C04
:103070002878401C287028782028EDD238682978D4
:1030800050FA81F010F03F0FE8D100F007F8E5E7C3
:103090002878002801D000F001F8F1BD7CB572B6A7
:1030A000022000F020FB2D4C206830F00200206050
:1030B000062000F026FB8DF80000206850F002008A
:1030C000206000BF206830F002002060022000F085
:1030D00018FB8DF80000234D687800F012FB8DF886
:1030E0000000287800F00DFB8DF80000002606E0B7
:1030F0001D48805D00F005FB8DF80000761C184827
:1031000001788E42F4DB216851F0020121602968C8
:10311000027851FA82F129600021017000F004F870
:103120000028FBD162B673BD1CB50C4C206830F092
:1031300002002060052000F0E4FA8DF80000002075
:1031400000F0DFFA8DF80000206850F002002060E7
:103150009DF8000010F0010016BD00001414004896
:10316000DC1B0020A41B0020F01A002010B4020079
:103170004FF6FF700AE013784340521C80B2000AF9
:10318000DFF87440DBB234F8133058400B00591E9E
:103190009BB2002BEFD180B210BC704701B49DF8F8
:1031A00000109DF8030041408DF800109DF80310B9
:1031B0009DF8000041408DF803109DF800109DF827
:1031C000030041408DF800109DF801109DF80200A9
:1031D00041408DF801109DF802109DF8010041401A
:1031E0008DF802109DF801109DF8020041408DF805
:1031F0000110009801B07047304D000862B38B0792
:1032000008D0521E11F8013B00F8013B00F0248069
:103210008B07F6D1830740F0208000BF103A07D318
:1032200030B4B1E83810103AA0E83810F9D230BC08
:10323000530724BFB1E80810A0E8081044BF51F8B4
:10324000043B40F8043BD20724BF31F8022B20F89E
:10325000022B44BF0B7803707047121F17D35B001B
:1032600009D151F8043B20F8023B1B0C121F20F837
:10327000023BF6D20BE051F8043B00F8013B1B0A7D
:1032800020F8023B1B0C121F00F8013BF3D238BFA1
:10329000121D521E24BF11F8013B00F8013BF8D863
:1032A00070470000DFF8BC050168491C01607047E9
:1032B00080B5DFF8B4150868002801D00868804799
:1032C000DFF8A805016851F00201016001BDDFF8D7
:1032D000A015086850F0010008600868C0F34000BD
:1032E0000028FAD00A68DFF88C0502400A60002046
:1032F000DFF88415086041F61070DFF8801508606B
:103300005FF48010DFF8781508605FF41F00DFF8C5
:1033100074150860704730B44FF4A970DFF8681571
:103320000860DFF85425106830F480301060032006
:10333000116860F3954111600121106861F35E70BE
:103340001060DFF82C35186850F08070186018682D
:10335000C0F340600028FAD0DFF83005036853F06E
:10336000300303600223146863F3010414601368DC
:10337000C3F38103146814F00304A342F7D1026875
:1033800032F03002026042F20F70DFF80425106064
:10339000DFF80005026832F004020260026852F0B1
:1033A00002020260026852F001020260DFF8E804E3
:1033B000026852F400320260026852F48022026015
:1033C000026852F480020260DFF8D004026861F300
:1033D00001020260DFF8C82413685B085B00136019
:1033E000DFF8C0341C68A408A4001C60DFF8B844EF
:1033F00025686D086D002560056861F3830505602B
:10340000106830F002001060186830F00C0018608E
:10341000206850F002002060DFF89004026832F06B
:103420000C020260DFF88804026832F002020260D7
:10343000DFF88004026861F3830202605FF090406D
:10344000026861F301020260DFF86C2413685B0814
:103450005B001360DFF864341C68A408A4001C60DF
:10346000DFF85C44256855F001052560056835F0F6
:10347000C0050560156835F0080515601D6861F325
:1034800087151D60056835F030050560156835F055
:10349000040515601D6861F305151D60056835F0AC
:1034A0000C050560156835F0020515601D6861F3AF
:1034B00083051D60056861F309250560106830F01B
:1034C00010001060186830F440701860206850F0E8
:1034D00010002060DFF8EC03016831F0F0010160BA
:1034E000DFF8E403016851F00201016030BC70476D
:1034F00030B4DFF8D8130200D2B2521101EB8201CE
:10350000C0B220220B68012490FBF2F502FB1500EB
:1035100014FA00F01843086030BC704730B4DFF88C
:10352000B0130200D2B2521101EB8201C0B22022CC
:103530000B68012490FBF2F502FB150014FA00F071
:103540001843086030BC704730B4DFF888230300AC
:10355000DBB233F003031A44C0B204231468C9B2C7
:1035600011F0030190FBF3F503FB1500C000801D73
:1035700011FA00F02043106030BC7047D64909684A
:1035800080B200FB01F0002100E0491C8142FCD325
:10359000704710B5040003E040F2E730FFF7EEFF9C
:1035A0002000441E80B20028F6D110BDAD4800684E
:1035B0007047E0B500F044FF0190AA49C74AD378AC
:1035C000087843408DF800309DF800309DF80700E2
:1035D00043408DF800309378487843408DF80130AF
:1035E0009DF801309DF8050043408DF80130537877
:1035F000887843408DF802309DF802309DF806002F
:1036000043408DF802301278C87842408DF803208C
:103610009DF803109DF8040041408DF803100098B8
:103620000EBD30B49C48016851F4003101605FF078
:1036300090400221026861F38B2202609E4A136867
:1036400033F0200313609D4B1C6834F440641C600D
:10365000A34C256835F470052560056861F38F3546
:103660000560156835F0800515601D6835F4404526
:103670001D60256825F070452560056861F30D35EE
:103680000560106830F040001060186830F4405059
:103690001860206830F0706020609248016851F432
:1036A00080510160904800210160904900220A6029
:1036B000026852F004020260026832F400620260A2
:1036C0000322036862F3C50303600A6832F4807260
:1036D0000A60016851F480710160016851F4007161
:1036E000016030BC704780490A6832F040020A60CD
:1036F0000A6860F3C5020A60086850F0400008607C
:1037000070477B4908707B4A1068C0F3400000286E
:1037100005D01068C0F3C01010F0010000E00120D7
:10372000C0B20028EFD108787047F0B45A490A684F
:1037300052F480020A600A6852F400320A605FF0B4
:1037400090420223116863F3934111605A4C21683F
:1037500031F400712160594D01212E6861F39346C7
:103760002E60574E376857F400773760624FD7F8AE
:1037700000C061F3071CC7F800C0D2F800C063F3B3
:10378000155CC2F800C0226832F4806222602A68A8
:1037900061F315522A60326852F4806232603A68EE
:1037A00061F30B223A604F490A6852F480420A6082
:1037B00052490A6852F480420A600A6832F4804230
:1037C0000A604F4900220A6000224E4B1A60002214
:1037D0004D4B1A604D4AB2FBF0F04D4A106008683C
:1037E00050F008000860086850F00400086008689D
:1037F00050F400500860F0BC704746490868C008A3
:1038000010F00100096811F001010843C0B27047CF
:1038100040480068400910F00100704770B4030090
:103820000020214C226852F0010222600DE01A783B
:103830005B1C394D2E6862F308062E60354A12680B
:10384000C2F38012002AF9D0401C0A00511E92B225
:10385000002AECD1216849084900216080B270BC7F
:1038600070470000A81B00206C1B002014040140BE
:1038700000100240FFFFF2FE041002402C10024034
:103880003010024008100240002002405410024054
:1038900014E000E010E000E01410024000140048C2
:1038A000041400480C140048141400480004004894
:1038B000040400480C040048040000480C000048C0
:1038C00014000048080001400C04014000E100E041
:1038D00080E100E000E400E000520008E8F7FF1F8C
:1038E0002000004818100240003001400430014020
:1038F0000C30014008300140240000480C10024008
:103900000C380140103801401438014000B4C404A0
:10391000083801400038014004380140F8B5DFF8AC
:10392000585A6889002840F03781DFF8504A2078DB
:10393000002807D0022800F083802FD3032800F04E
:10394000C78029E1A879DFF8381A0870DFF8345AFF
:1039500000206870DFF8306A300000F0BFFD03001F
:103960000096DBB2DFF8240A4278182168782844F0
:10397000801C00F0CFFD6978401868700320287023
:10398000DFF80C2A00213D20FDF7A0FDFFF70EFE19
:10399000DFF8001A086001202070FDE0DFF8F4591C
:1039A000FFF704FE2968401AB0F5FA6F47D3DFF835
:1039B000D46900207070DFF8E079009704230022BA
:1039C000082170783044801C00F0A4FD7178401804
:1039D0007070381D00900423002209217078304453
:1039E000801C00F097FD71784018707017F1080086
:1039F0000090022300220A2170783044801C00F0DD
:103A000089FD717840187070DFF8900900900123EB
:103A10000022032170783044801C00F07BFD717817
:103A20004018707000203070DFF8642900213D20BC
:103A3000FDF74CFDFFF7BAFD286002202070ABE0D7
:103A4000DFF85C69FFF7B2FD3168401AB0F57A5FC4
:103A500005D2DFF82C090078A979884210D0FFF749
:103A6000A5FD3060A879DFF818190870DFF834096F
:103A700003210170A9794170022100F063FD26E065
:103A8000FFF794FD3168401AB0F57A7F1FD3FFF736
:103A90008DFDDFF800592968401ADFF8FC180A8903
:103AA0004FF47A714A43904211D30020DFF8D418C2
:103AB0004870DFF8F00805210170D2214170022121
:103AC00000F040FDFFF772FD28600320207063E0E6
:103AD000FFF76CFDDFF8BC180968401AB0F5FA6F03
:103AE0005AD3DFF8A068002030707078D0F1400021
:103AF000042807D2DFF8982800213D20FDF7E6FCD6
:103B000000207070A81D0090012300220D21707804
:103B10003044801C00F0FEFC7178401870707078A2
:103B2000D0F14000042807D2DFF8642800213D20AE
:103B3000FDF7CCFC00207070681D0090012300226E
:103B40000C2170783044801C00F0E4FC717840183F
:103B500070707078D0F14000042807D2DFF8302868
:103B600000213D20FDF7B2FC00207070DFF82C082A
:103B7000009001230022032170783044801C00F063
:103B8000C9FC717840187070DFF8042800213D20CE
:103B9000FDF79CFC02202070F1BD70B505000C0003
:103BA000DFF8E0070021417002210170DFF8F867BB
:103BB000307807280AD13C20DFF8BC174881B0785C
:103BC000192803D13179701D00F090FD3078032859
:103BD00011D12100300000F090F8DFF8C8275078AC
:103BE000002806D05178891CC9B2100000F0AAFC48
:103BF00001E0012030703078012820D1002C1ED047
:103C00000622DFF8A817280000F0E6FB002813D1F1
:103C100015E0300000F069FADFF8882750780028B6
:103C200005D05178891CC9B2100000F08BFC22002D
:103C300000213D20FDF74AFC70780028E9D170BDD5
:103C4000F8B504000D002800C0B2432854D22078F3
:103C5000002808D12A00D2B22100DFF828673000FE
:103C6000FFF7CCFA23E0207802280ED12A00D2B246
:103C70002100DFF810673000FFF7C0FADFF81027E7
:103C800000213D20FDF722FC11E0207803280ED111
:103C90002A00D2B22100DFF8106737003800FFF7A2
:103CA000ADFA0021300000F028F8012020702078C3
:103CB000012816D1EDB22100DFF8EC6637002A00AA
:103CC0003800FFF79BFA09E0300000F00EFADFF849
:103CD000B4064178891CC9B200F034FC7078002821
:103CE000F2D12078052807D1601C0078332803D151
:103CF0000220DFF884160871F1BD2DE9FE4F0500A2
:103D00000C00002768788DF804005FF00008DFF8E9
:103D10009466032030700020707033E05FF001087B
:103D200001E05FF001085FFA88F8B8F1000F21D0D8
:103D30002879C01CDFF84C164978D1F1400188423F
:103D400018D23800C0B22844401D00903800C0B2DC
:103D5000284403793800C0B22844C2783800C0B281
:103D60002844817870783044801C00F0D3FB71784F
:103D7000401870703800C0B228440079C719FF1C81
:103D80005FF0000838009DF80410C0B2884280F04F
:103D9000AA813800C0B22844807802285ED0072863
:103DA00012D0082800F0B080092800F0CE800A2840
:103DB00000F081800C2800F0EA800D2800F00181DD
:103DC000182800F04A81A9E73800C0B22844C0781A
:103DD000002813D13800C0B22844007905280DD23C
:103DE0003800C0B2284402793800C0B22844411DCE
:103DF000DFF884954846FFF701FA2EE03800C0B29C
:103E00002844C078012826D13800C0B2284400795F
:103E1000052820D23800C0B2284402793800C0B248
:103E20002844411D0DF108094846FFF7E7F90298BB
:103E3000002812D1DFF854950020C9F82C00342155
:103E40004846FFF793F9A9F8340036224946002086
:103E5000FFF7F9F801E05FF0010864E73800C0B24D
:103E60002844C078002823D13800C0B22844007903
:103E700002281DD23800C0B2284402793800C0B2EE
:103E80002844411DDFF8109519F10A0A5046FFF742
:103E9000B5F999F80A00032802DB022089F80A0024
:103EA000484600F0E4FD0120DFF8CC14087101E081
:103EB0005FF0010837E73800C0B22844C078002816
:103EC0001FD13800C0B228440079032819D2380025
:103ED000C0B2284402793800C0B22844411DDFF83E
:103EE000B89419F1080A5046FFF788F9B9F80800A4
:103EF0000F2802DA0F20A9F80800484600F0B7FDA5
:103F000001E05FF001080EE73800C0B22844C07835
:103F1000002817D13800C0B228440079052811D2F2
:103F20003800C0B2284402793800C0B22844411D8C
:103F3000DFF86494CA465046FFF760F9484600F03F
:103F400096FD01E05FF00108EDE63800C0B22844BC
:103F5000C078002818D13800C0B22844007905285C
:103F600012D23800C0B2284402793800C0B22844C6
:103F7000411DDFF8249419F1040A5046FFF73EF979
:103F8000484600F074FD01E05FF00108CBE6380020
:103F9000C0B22844C078002810D13800C0B22844EC
:103FA000007902280AD23800C0B228444079022899
:103FB00006D10020DFF8C013087201E05FF00108AD
:103FC000B1E63800C0B22844C078002842D1380099
:103FD000C0B22844007902283CD2002C1DD1DFF861
:103FE000989399F80800002836D13800C0B22844C8
:103FF00002793800C0B22844411DDFF8B4A3D3468B
:104000005846FFF7FBF89AF800003238382823D2D8
:104010009AF8000089F806001EE03800C0B2284473
:1040200002793800C0B22844411DDFF88493CA46A3
:104030005046FFF7E3F899F800003238382804D2E8
:1040400099F80000DFF8301388710120DFF8281399
:10405000087201E05FF0010865E63800C0B228444C
:10406000C0780228FFF65DAE3800C0B2284400795F
:104070002128BFF456AEDFF814933800C0B22844AC
:10408000C07889F8010034214846FFF76FF8A9F895
:104090003400362249460020FEF7D5FF20210022B9
:1040A000DFF8F49219F10B0AD3465846FEF750FF99
:1040B0003800C0B2284402793800C0B22844411DFB
:1040C0005046FFF79BF8484600F0D1FCB7494FF641
:1040D000FF70A1F8860088226520FEF7B4FF01205A
:1040E000A54908711FE6BDE8F78F2DE9FC470400DC
:1040F000A44D02202870002068705FF00009A94ECE
:10410000012030700020707003E06078C01BC01E7A
:1041100060706078002800F02C81A078012820D001
:10412000022828D0032800F0988004282DD00528E4
:1041300000F0B18007284CD0082870D0092878D02A
:104140000A2800F080800C2800F091800D2800F0F3
:104150009880162823D017282ED0182800F0A58084
:10416000ADE0E078002803D10627DFF8208201E0E7
:104170005FF00109A5E0E078002803D10127DFF80E
:10418000348201E05FF001099BE0E078002803D170
:104190000227DFF8248201E05FF0010991E0E07876
:1041A000002806D1DFF81482404600F097F9070096
:1041B00001E05FF0010984E0E078002806D1DFF833
:1041C0000082404600F08AF9070001E05FF0010933
:1041D00077E0E078002803D10427DFF89C811DE018
:1041E000E07801280AD16948C06A4FF46161B0FBE8
:1041F000F1F0019004270DF104080FE0E0780228A7
:104200000AD16248006B4FF46161B0FBF1F001909C
:1042100004270DF1040801E05FF0010951E0E078A6
:10422000002803D10427DFF8708101E05FF0010965
:1042300047E0E078002803D10427DFF8888101E017
:104240005FF001093DE0E078002803D10227DFF8A4
:10425000788101E05FF0010933E0E078002803D1C4
:104260000127DFF8388101E05FF0010929E0E078FB
:10427000002803D10127DFF8548101E05FF0010934
:104280001FE0E078002803D10127DFF8448101E036
:104290005FF0010915E0E078002803D10227DFF87C
:1042A000348101E05FF001090BE038484078E070AC
:1042B000DFF8D480404600F011F9070001E05FF01C
:1042C00001095FFA89F9B9F1000F1BD02079C01CF0
:1042D000412802D3002060704BE02079C01C69782F
:1042E000D1F14001884223D2601D00902379E27809
:1042F000A17870783044801C00F00CF97178401877
:10430000707015E06878D0F140003900C9B2C91C5E
:1043100088422ED3CDF800803B00DBB2E278A17852
:1043200068782844801C00F0F5F8697840186870B7
:104330005FF0000927793800C0B2C01C412802D3C1
:104340000020607015E0607821790A18D21E20796B
:104350002044411D14F1020A5046FEF74FFF6078D9
:104360003900C9B2C91C8842BFF6CFAE00206070C8
:10437000CFE6BDE8F3870000481B0020DA1B0020D1
:10438000D91B00209C190020AB1A0020681A0020BD
:10439000101800208C1B0020A01A0020D11B002028
:1043A000901B0020241A0020E01900209017002004
:1043B000D81B0020AA1A00208E1A00206E1A002096
:1043C0007E1A0020A41A0020A81A00204D1B0020ED
:1043D0004E1B0020981700200300002013F0030F4D
:1043E00009D0521E22BF13F8010B11F801CBB0EB1C
:1043F0000C00F3D0704711F0030F14D1121F22BF2D
:1044000053F8040B51F804CB6045F7D0121D0AD2C3
:1044100000BA9CFA8CFCB0EB0C0038BF6FF00000C7
:1044200088BF01207047521E22BF13F8010B11F8FC
:1044300001CBB0EB0C00F6D0521C08BF1046704701
:10444000F0B42249224AD1F8807056681078214C85
:10445000214D6FF0004320BB082005FB0646374680
:104460001E46B7FBF6F6401E03FB1676F5D10F4647
:10447000102005FB06469C46B6FBFCFC03FB1C66B5
:104480003E601E4657F804CB05FB0C4CBCFBF6F611
:1044900003FB16C6401E47F8046BEAD1CF6F01201C
:1044A000107005FB06461C4607F01F07B6FBF4F428
:1044B00051F8270003FB146641F82760C1F880001B
:1044C000566020F04040F0BC7047000018180020F3
:1044D000000000205FF36E3C0D66190000F101033F
:1044E000810704D010F8011B820781B1FAD102685C
:1044F000A2F10131914311F0803104BF50F8042F33
:10450000F6E709BAB1FA81F100EBD100401CC01AFC
:104510007047000030B40400029D03202170611C2C
:104520000A70491C0B70491C04E02A780A706D1C43
:10453000491C401C1A00531ED2B2002AF5D1C0B249
:1045400030BC704730B45E4A14785E4B1B78E31A77
:1045500003F0FF03D3F580730C00E4B2641C9BB23C
:104560009C4212DA584B147819551478641C147054
:1045700006E0047815785C55401C1478641C1470AF
:104580000C00611EE4B2002CF3D130BC70472DE961
:10459000F8434E4C2078002804D0022800F089808F
:1045A0001FD389E000204649087000204549087063
:1045B00001202070464CB4F82B00FFF7B6F8B4F891
:1045C0002B0044F60131884207DA4248B4F82B1038
:1045D000B0FBF1F04049086002E012203E4908605B
:1045E0006CE0FFF70AF9002802D00220207065E095
:1045F000FFF70EF9002810D0384839490968394AC0
:104600000388D1540188491C0180017801F0FF0121
:104610000180FEF7CBFF344908602F4E324DFEF784
:10462000C5FF2968401A316888420AD32B4F388861
:10463000002806D03988C9B22A48FFF701FB0020BC
:104640003880204FDFF8788098F800003978884269
:104650002ED0FEF7ABFF2968401A3168884227D375
:10466000194E387816F800903878401C3870387831
:1046700038704846B0F10109C0B2002815D038782A
:10468000411C39700121C0B23044FFF7C7F83878B7
:1046900038704846C0B20028EBD098F8000039784E
:1046A0008842E6D10220207008E0FEF77FFF2860F4
:1046B00004E00020207001E000202070BDE8F183BC
:1046C000DD1B0020DE1B002008150020DF1B002062
:1046D000A01A0020E8DF0500B01B0020CC1B002042
:1046E0000438014008140020AC1B00202DE9F843D9
:1046F00004000F0000200026FFE7052FC0F0C28055
:104700003444694D20782870E0786871201DA860D5
:104710002E78761DBF1B0021002202E0A05C41180C
:10472000521C2878401D8242F8D3C9B20029E4D136
:104730006879002806D0012875D0022857D00428AF
:1047400063D098E0002028710020E8706078A8709D
:10475000A0786870D5F80110D5F811004118D5F887
:104760000D004118C5F8011002E02878001F2870DC
:1047700028780028C1D0D5F8018008F1006818F524
:10478000E0484A4810EB080047F20101884220D275
:104790002878042809DA5FF0FF3000902A78A968A9
:1047A000E9464846FEF72AFD05E00422A968E946E5
:1047B0004846FEF723FD00F02DFA5FEA885002D14B
:1047C000404600F039FA0099404600F057FA00F0F0
:1047D0002AFAD5F80100001DC5F80100A868001DDF
:1047E000A86028780428C0DA00202870C0E70020DC
:1047F0002874A8680078E873A8684078A873002037
:1048000068730020C5F8110077E7A868007828755C
:10481000A8684078E8740020A8740020687400201C
:10482000C5F80D0069E70622A968214DA846404653
:10483000FEF7E4FC6988288800F026F8002819D0E3
:10484000DFF870802888C8F828000222291D18F196
:1048500026052800FEF7D2FC34214046FEF786FCF0
:10486000A8F83400362241460020FEF7ECFB12483F
:104870001249086041E70020C5F80D000020C5F886
:1048800011003AE7BDE8F18310B50C00010089B2D0
:104890000B48FEF76BFC80B2A4B2A04201D101200C
:1048A00000E0002010BD0000101B00200080FFF77A
:1048B000541B0020681A00200400FA050CED00E0EB
:1048C00000800008F8B5BE48BE490860FEF723FD29
:1048D000FEF786FB00F0D9F8FEF7E1F8BA4C0020AD
:1048E00020716420A07101206071B84D00202870F3
:1048F0000020207200206072B54E0020306087E0FA
:10490000607A00287DD0022060717AE00022C9B26E
:10491000C0B20140D2B211420DD03220FEF72EFEBD
:104920003868400810F0010090F00100E071FEF7D7
:104930003DFEA8490860A84FFEF738FE3968401AC6
:10494000B0F5FA7F1BD3FEF731FE3860A34801684B
:104950004A08520091F0010111F001011143016078
:10496000217901290BD12978491C297001684A084D
:10497000520091F0010111F0010111430160207911
:10498000022801D100F0A4F82878072802DB944817
:1049900094490860944FFEF709FE3968401AB0F553
:1049A0007A7F2ED3FEF702FE38602068401C20601C
:1049B0003068401C30603068B0F5167F14D38B4FE0
:1049C000F96A30684118F962396B30684118396307
:1049D0000020306034213800FEF7C8FBB88636224C
:1049E00039000020FEF72FFB6089002802D0608983
:1049F000401E6081207A002882D000206072002052
:104A000060712079FEF716F9FCF760FBFFF7BFFD38
:104A1000E079002817D0FEF7C9FD6E490968401AF1
:104A200041F28831884204D3022020710020E071D5
:104A300009E06F480068C0F34000002803D001205F
:104A400020710020E0716A4F3868C0F3400111F016
:104A5000010191F00101E079002801D1012000E07D
:104A600000202279012A3FF451AF01224FE710B50F
:104A700004002D212000FEF779FBA4F82D002F2241
:104A800021003620FEF7DFFA10BD10B5574C362254
:104A900021000020FEF7A8FA34212000FEF766FB73
:104AA000A18E80B2814201D000F023F8514C2F2218
:104AB00021003620FEF798FA2D212000FEF756FB44
:104AC000B4F82D1080B2814201D000F05BF810BD27
:104AD00080B55FF0FF30009000F00BF800F052F866
:104AE000042269466520FEF7AEFA012036490871B6
:104AF00001BD7CB53D4CD2202070022060700621A3
:104B00003D48FEF733FBADF8000002226946A51CC4
:104B10002800FEF773FB06213848801CFEF726FBB1
:104B2000ADF8000002226946251D2800FEF766FB4D
:104B300010210022A51D2E003000FEF709FA304991
:104B4000280000F0E9F81021002214F116052E00CB
:104B50003000FEF7FDF92B49280000F0DDF80020B9
:104B600084F82600042084F827000020E062342125
:104B70002000FEF7FBFAA086362221000020FEF777
:104B800062FA73BD70B51B4C1F4820601F486060FF
:104B9000B42020810020A0722021002214F10B05F6
:104BA0002E003000FEF7D4F91949280000F0B4F8BF
:104BB0004FF49650A4F82B002000FFF758FF70BD6B
:104BC0000010000808ED00E0481B0020DB1B00205F
:104BD000941B0020A01B00209C1B002014140048E4
:104BE0000400FA050CED00E0981B0020681A002074
:104BF00010040048A01A0020E8F7FF1FECF7FF1F81
:104C0000DC510008BC510008A1B25E426F1116428F
:104C1000E85100083A483B4901603B490160FD20EA
:104C20003A49086070473A48016851F080010160D4
:104C3000FD2036490860704738B504005FF4302025
:104C400000F03AF80100C9B2062912D1304D2868A7
:104C500050F0020028602F480460286850F040009F
:104C600028605FF4302000F027F8296831F0020155
:104C70002960FD21254A1160C0B232BD70B5040023
:104C80000D005FF4302000F017F80100C9B20629CA
:104C90000DD11F4E306850F00100306025605FF488
:104CA000302000F009F83168490849003160FD21E1
:104CB000164A1160C0B270BD01000620134B1A687D
:104CC000D20718D41A68C2F30012002A15D11A6844
:104CD000C2F38002002A00D00320491E0200D2B293
:104CE000012A01D10029E9D10100C9B2012900D16D
:104CF0000A20C0B270470120EFE70520EDE7000071
:104D00000420024023016745AB89EFCD0C2002400F
:104D100010200240142002405FEA000C11F8012B21
:104D200000F8012B12B111F8012BF9E7604670472A
:104D30000000C1C081C1400101C3C003800241C263
:104D400001C6C006800741C70005C1C581C4400433
:104D500001CCC00C800D41CD000FC1CF81CE400EE3
:104D6000000AC1CA81CB400B01C9C009800841C8F3
:104D700001D8C018801941D9001BC1DB81DA401A63
:104D8000001EC1DE81DF401F01DDC01D801C41DC33
:104D90000014C1D481D5401501D7C017801641D663
:104DA00001D2C012801341D30011C1D181D0401073
:104DB00001F0C030803141F10033C1F381F2403263
:104DC0000036C1F681F7403701F5C035803441F433
:104DD000003CC1FC81FD403D01FFC03F803E41FEE3
:104DE00001FAC03A803B41FB0039C1F981F84038F3
:104DF0000028C1E881E9402901EBC02B802A41EA63
:104E000001EEC02E802F41EF002DC1ED81EC402C32
:104E100001E4C024802541E50027C1E781E6402662
:104E20000022C1E281E3402301E1C021802041E072
:104E300001A0C060806141A10063C1A381A2406262
:104E40000066C1A681A7406701A5C065806441A432
:104E5000006CC1AC81AD406D01AFC06F806E41AEE2
:104E600001AAC06A806B41AB0069C1A981A84068F2
:104E70000078C1B881B9407901BBC07B807A41BA62
:104E800001BEC07E807F41BF007DC1BD81BC407C32
:104E900001B4C074807541B50077C1B781B6407662
:104EA0000072C1B281B3407301B1C071807041B072
:104EB0000050C190819140510193C0538052419262
:104EC0000196C056805741970055C1958194405432
:104ED000019CC05C805D419D005FC19F819E405EE2
:104EE000005AC19A819B405B0199C05980584198F2
:104EF0000188C04880494189004BC18B818A404A62
:104F0000004EC18E818F404F018DC04D804C418C31
:104F10000044C184818540450187C0478046418661
:104F20000182C042804341830041C1818180404071
:104F300000001300010006000200300003003C00E6
:104F40000400930005000B00060051000700DE007E
:104F50000800A800090023000A0047000B000C000D
:104F60000C004B000D0028000E008A000F00D80036
:104F70001000080011004200120005001300A400F8
:104F800014007A001500E10016002A001700F60050
:104F9000180000001900B1001A00A0001B00120048
:104FA0001C0080001D0000001E0000001F000B0000
:104FB0002000120021000800220021002300000030
:104FC0002400000025000000260000002700030048
:104FD0002800200029003F002A0030002B007F001D
:104FE0002C0056002D000F002E00FF00002F1C008B
:104FF000012F3000022F0300032F0000042F0000B8
:10500000052F0200062F0100072F0000082F0000C7
:10501000092F00000A2F00000B2F00000C2F560054
:105020000D2FDE000E2FB8000F2F0200102FEE0004
:10503000112F1000122F0400132F5000142F000006
:10504000152F2000162F4000172F0E00182F2800B4
:10505000192F03001A2F00001B2F33001C2FF700FD
:105060001D2F0F001E2F00001F2F0000202F6E008D
:10507000212F1C00222FAC00232F1400242F00000E
:10508000252F0000262F0000272FB500282F000015
:10509000292F02002A2F00002B2F00002C2F100098
:1050A0002D2F00002E2F00002F2F0900302F010080
:1050B000312F0100322F0E00332FA000342F0300B8
:1050C000352F0400362F0300372F0000382F000043
:1050D000392F000030B4002512E050F8042BD3071C
:1050E00044BF4A44521E091F042942F8045BFAD205
:1050F00013468C0744BF15809B1CC90748BF1D7011
:1051000050F8041B0029E8D130BC704710B507499E
:1051100079441831064C7C44163404E00A68081DB2
:10512000114488470146A142F8D110BD0800000093
:1051300028000000A1FFFFFFD81B0000080000208E
:105140000000000073DEFFFF08000000A800000060
:10515000000000200000000000F00DF8002801D041
:10516000FFF7D4FFAFF300800020AFF30080FFF71C
:10517000A9FB00F002F80120704700F001B8000020
:105180000746384600F002F8FBE7000080B5AFF3B1
:105190000080024A11001820ABBEFBE72600020087
:1051A0000548014603B4684680F30988AFF30080E0
:1051B000AFF30080FFF7D0FFA5EDF5FE4A756E65F1
:1051C0002030332032303234000000000148804764
:1051D00001480047CF320008A151000844324D4C2D
:1051E00050447631000000006C69676874706F731A
:1051F000740000000000000001000000FFFFFFFF3E
:1052000014000000FFF7FEBFFFF7FEBFFFF7FEBF71
:10521000FFF7FEBFFFF7FEBFFFF7FEBFFFF7FEBFC2
:10522000FFF7FEBFFFF7FEBFFFF7FEBFFFF7FEBFB2
:10523000FFF7FEBFFFF7FEBFFFF7FEBFFFF7FEBFA2
:10524000FFF7FEBFFFF7FEBFFFF7FEBFFFF7FEBF92
:10525000FFF7FEBFFFF7FEBFFFF7FEBFFFF7FEBF82
:10526000FFF7FEBFFFF7FEBFFFF7FEBFFFF7FEBF72
:10527000FFF7FEBFFFF7FEBFFFF7FEBFFFF7FEBF62
:10528000FFF7FEBFFFF7FEBFFFF7FEBFFFF7FEBF52
:04000005080051A1FD
:00000001FF
